:100000000C9414010C9431010C942C040C943101C7
:100010000C9431010C9431010C9431010C94310198
:100020000C9431010C9431010C9431010C94310188
:100030000C9431010C9431010C9431010C94310178
:100040000C9431010C9431010C9431010C94C60CC8
:100050000C9431010C9431010C9431010C94310158
:100060000C9431010C9431010C9431010C94310148
:10007000ED06EF06F106F306F506F706F906FB06B0
:10008000FD06FF06010703070507070709070B071A
:100090000D070F07110713073D073F0745074707E0
:1000A00049074D074B074D074F07510753075507A2
:1000B00057075B0759075B075D075F076107630722
:1000C0006507670769076B076D076F077107730798
:1000D0007507770779077B077D077F078107830708
:1000E0008507870789078B076364696E6F7073756F
:1000F00078585B005A0D6CF069F171F170F37AF485
:100100007DF575F672F76BF874F94A2F14FB1FFD35
:1001100027FE00000D090E7E11FC14FB155116215F
:100120001A5A1B531C411D571E4021432258234479
:1001300024452524262329202A562B462C542D528B
:100140002E25314E3242334834473559365E3A4DCA
:100150003B4A3C553D263E2A413C424B4349444F95
:1001600045294628493E4E5F4B4C4C3A4D504A3F3C
:100170005222547B552B5A0D5B7D5D7C660869319C
:100180006B346C377030712C72327335743675384D
:10019000792B7A337B2D7C2A7D3900000D090E6086
:1001A00011FC14FB157116311A7A1B731C611D7733
:1001B0001E322163227823642465253426332920C6
:1001C0002A762B662C742D722E35316E326233688E
:1001D0003467357936363A6D3B6A3C753D373E3883
:1001E000412C426B4369446F45304639492E4A2FB2
:1001F0004B6C4C3B4D704E2D512F52B4545B553DC2
:100200005A0D5B5D5D5C660869316B346C3770302C
:10021000712C7232733574367538761B792B7A33BC
:100220007B2D7C2A7D39000011241FBECFEFD4E046
:10023000DEBFCDBF14E0A0E0B1E0E4EDF2E202C029
:1002400005900D92A630B107D9F724E0A6E0B4E0FE
:1002500001C01D92AF35B207E1F70E94450B0C9427
:1002600068110C940000DD9A82E18A95F1F700C0D4
:10027000DD9884E08A95F1F7089587FF02C0DB9A44
:1002800001C0DB9886FF02C0DA9A01C0DA9885FFC8
:1002900002C0D99A01C0D99884FF02C0D89A0895A3
:1002A000D8980895CF93DF93C82FD62FD39AD29A98
:1002B000D19AD09A8FE08A95F1F78C2F0E943D0158
:1002C0008FE08A95F1F7DD2311F0DC9A01C0DC980C
:1002D0000E943301C3FF02C0DB9A01C0DB98C2FF5A
:1002E00002C0DA9A01C0DA98C1FF02C0D99A01C0EF
:1002F000D998C0FF02C0D89A01C0D8988FE08A95DB
:10030000F1F7DD2311F0DC9A01C0DC98DF91CF9189
:100310000C943301009731F0EEE5FAE03197F1F7F4
:100320000197F8CF089591E29A95F1F7000060E007
:100330000E94520181E28A95F1F7000082E090E08C
:100340000C948A01611102C0805801C080540C9441
:10035000930191E29A95F1F7000061E00E94520149
:1003600081E28A95F1F700000895CF93DF93EC01C5
:100370008991882319F00E94A901FACFDF91CF91CA
:10038000089588E20E94930188E00E94930181E031
:100390000E94930186E00E9493018CE00E949301E9
:1003A00081E28A95F1F7000082E090E00C948A01E6
:1003B000D39AD29AD19AD09AD49AD59A8CE090E0D6
:1003C0000E948A0180E30E943D010E94330182E085
:1003D00090E00E948A0180E30E943D010E94330167
:1003E00082E090E00E948A0180E30E943D010E9429
:1003F000330182E090E00E948A0180E20E943D0188
:100400000E9433010C94C10120E030E02817390725
:100410004CF4ECECFAE03197F1F700C000002F5FEC
:100420003F4FF4CF0895CF93C82F9BB79F779BBFC3
:10043000CB010E940402C0930F0420910F0481E0BD
:100440008093130487E030E041E0B901082E02C038
:10045000759567950A94E2F760FF05C090911304C3
:10046000942790931304815080F780911304813076
:1004700019F48FE780931304109201018FE78093A2
:1004800014048B9A93988BE491E00197F1F700C0E4
:1004900000008C9A94988B988BB780688BBF809162
:1004A00014048F37E1F3CF9108959FE9980F9A31A3
:1004B00008F480520895CF93DF93982F92959F7000
:1004C000D0E3D90FDA3310F0D7E3D90F8F70C0E340
:1004D000C80FCA3310F0C7E3C80F80915A0461E017
:1004E0000E94A2018D2F0E94A9018C2F0E94A901B8
:1004F00080915B0460E00E94A20180915A048D5FAC
:1005000080935A0480915A04813110F010925A0459
:10051000DF91CF910895F894E199FECF9FBB8EBBF8
:100520006DBBE29AE19A78940895F894E199FECF30
:100530009FBB8EBBE09A78948DB30895F89485B7ED
:10054000806885BFE0E0F5E0E0833196E11580E862
:10055000F807D1F7E0E0F5E08E2F9191981729F098
:1005600085B78F7785BF80E00895E11580E8F807AB
:1005700099F785B78F7785BF78948FE70895FC0149
:10058000F89495B7906895BF608385B78F7785BFDE
:1005900078940895FC01F89495B7906895BF808190
:1005A00095B79F7795BF78940895AF9A82B3806C82
:1005B00082BB3A9A389AC0980C94D801CF92DF92B5
:1005C000EF92FF920F931F93CF93DF93CDB7DEB7D8
:1005D00029970FB6F894DEBF0FBECDBF0E94D5029B
:1005E0008FEF91E00E949502082F80E092E00E9438
:1005F000950210E0102F0027082BCE0101966C0108
:1006000089E0F60111928A95E9F70130F2E01F07BF
:1006100018F4E12CF12C0EC083E091E00E94B501AA
:100620002FEF8FED90E1215080409040E1F700C026
:1006300000003EC00E151F05C0F161E080E00E9481
:10064000A20183E191E00E94B50140E1B601C7013A
:100650000E94D30D60E080E00E94A20183E291E05D
:100660000E94B501C6010E94B501C7010E94950212
:1006700040E1B60190E00E94D30D88E291E00E9433
:10068000B501C6010E94B50182E094E00E94B50167
:10069000EFEFF7E324E0E150F0402040E1F700C045
:1006A00000008FEFE81AF80AC5CF81E00E9493019D
:1006B00029960FB6F894DEBF0FBECDBFDF91CF9164
:1006C0001F910F91FF90EF90DF90CF9008958830A9
:1006D000F1F08D3009F448C08B3169F18B3F09F49A
:1006E0003FC08C3FF9F0813FA9F190915B049031BC
:1006F000E8F59DE0980F9730C8F1803FB9F18D3F44
:10070000A9F1809359048FE780931604089580918E
:100710005B04882331F080915B04815080935B04FB
:100720000895089580911004813011F482E019C079
:100730001092100408950E94D50281E00E94930156
:10074000109212041092020110925B048BE08093CD
:100750000101089580911004823051F78FE701C0A4
:1007600081E0809310040895809302010895909190
:100770000804911165C0893581F018F4823169F05F
:1007800010C0803E31F0803F61F481E08093080426
:10079000089581E080930704089581E08093060422
:1007A0000895909107049923B9F090E0292F30E043
:1007B000220F331FF901EC50FF4F4491841307C0FF
:1007C000E4918E1348C0F901EB50FF4F36C04491BD
:1007D0004423B1F39F5FEACF90910604992311F06F
:1007E00090E01BC090E0292F30E0220F331FF90169
:1007F000E456FE4F4491841307C0E4918E132BC03E
:10080000F901E356FE4F19C044914423B1F39F5FB1
:10081000EACF4491442359F09F5F292F30E0220F03
:10082000331FF901EC5EFE4F44918413F2CFE49143
:100830008E1311C0F901EB5EFE4F84910C94670397
:100840001092080410920704823119F0893509F0DA
:1008500008951092060408951F920F920FB60F92FA
:1008600011242F933F934F935F936F937F938F93B5
:100870009F93AF93BF93EF93FF93809100018111FA
:100880001DC0809101018B3090F480910101833073
:1008900070F08091140481110AC08091090486953A
:1008A00080930904849B03C080688093090485B702
:1008B0008C6085BF8FE780930001B1C085B78B7FC7
:1008C00085BF10920001809114048F37B9F5909183
:1008D0000101983068F480910F042091010190E0AB
:1008E00002C0959587952A95E2F780FF0BC008C056
:1008F00090910101983041F4809113048F3711F4E5
:10090000949A16C0949814C090910101993019F4EA
:10091000949A8C980DC0909101019A3049F4949862
:1009200090910F049D3E11F48093180410921404CA
:10093000809101018F5F8093010171C0809101015D
:1009400081508093010181116AC080910904873729
:1009500021F0883511F08E3721F48093020181E077
:1009600047C0909118049F3709F045C0809102015B
:10097000873771F480911504811104C080910E04B1
:1009800082602FC01092150480910E04857029C0DA
:1009900080910201883589F480911704811107C084
:1009A0008FE78093170480910E0484601AC0109220
:1009B000170480910E04837014C0809102018E3759
:1009C00091F480911104811107C08FE78093110485
:1009D00080910E04816005C01092110480910E0474
:1009E000867080930E04109218041092020182E027
:1009F00080935C0414C0873011F0883719F4809319
:100A000002010DC090915D049F3711F40E945B02BA
:100A10008BE080930101809109040E94B703FF914C
:100A2000EF91BF91AF919F918F917F916F915F9166
:100A30004F913F912F910F900FBE0F901F901895DF
:100A4000CF93DF93D82FC62F0E94D502D5BB3898FD
:100A5000C11102C0C09801C0C09A389AC098DF91F5
:100A6000CF9108950E94D5023898C09880E090E018
:100A700085BB0196811521E09207D1F7389AC0987D
:100A80000895CF93C82F0E94D502C5BB3A98B1995B
:100A900003C03A9A8FE702C03A9A80E0CF91089556
:100AA00001979C0140E050E060E076E485E090E052
:100AB0000E94AB0D832F992780BD29B988E18AB99F
:100AC00086E880BD579A0895CF93F8948FEF8ABB3C
:100AD00099EE97BB84BB96EE91BB86B9C0E881E0E6
:100AE0000FB6F894C0936100809361000FBE8EB57D
:100AF00088608EBD8FB580648FBD88E195E19BBD18
:100B00008ABD8EB584608EBD80E895E20E94500556
:100B100085B7886085BFCBBF7894CF9108950E9438
:100B2000D50281E00E9493018CE391E00E94B5011F
:100B30002FEF8FED90E1215080409040E1F700C011
:100B4000000081E00C94930161E00E94A2018BE41B
:100B500091E00E94B50180915B0460E00E94A201D7
:100B600080E00895EF92FF920F931F93CF93DF934E
:100B7000CDB7DEB762970FB6F894DEBF0FBECDBF1C
:100B8000F894809119048F3409F051C080911A04AF
:100B9000853509F053C180911B04843509F0F6C0F6
:100BA00080911C04803219F180911E04803209F07A
:100BB00083C080911F048F3409F05FC080912004AE
:100BC0008E3439F48FE78093120481E080930D0412
:100BD000DFC080912004863441F580912104863461
:100BE000E9F48FE78093120410920D04D1C0809134
:100BF0001D04813409F0B9C080911E048C3409F0C1
:100C00005BC080911F048C34C1F580912004803238
:100C100061F4809121048F3409F450C088E024C528
:100C200080912004863409F4F2C487E01DC58091C8
:100C30001904893409F4FEC0809119048D34F9F443
:100C400080911A04853409F0F9C080911B048D3419
:100C500009F09CC080911C04803209F030C2809160
:100C60001D04843509F0B8C180911E04833521F537
:100C700080911F04843509F475C186E0F5C4809124
:100C80001904853409F010C380911A04853409F0E1
:100C9000D5C080911B04803509F078C080911C0478
:100CA000823509F00CC280911D048F3409F05DC0BB
:100CB00080911E048D3439F185E0D6C480912204E0
:100CC0008E3461F40E94D50280E085BB3898C09ACA
:100CD0008F5F8F3FD1F7389AC09865C28091220408
:100CE000863451F580912304863459F40E94D5024C
:100CF00080E085BB3898C0988F5F8F3FD1F7389AD6
:100D000052C28AE0B1C480911F04803209F0B5CF8D
:100D100080912004833409F4D4C180912004833568
:100D200009F008C280912104883409F077CF8091BE
:100D300022048F3409F4F6C189E096C48091190425
:100D40008234A9F480911A048C3409F077C0809120
:100D50001B048934D9F480911C048E3409F0AFC18E
:100D600080911D048B3409F43FC484E07DC48091DC
:100D70001904843409F077C480911A04853409F089
:100D80005DC080911B04823409F494C182E06CC47C
:100D9000109112041F3709F006C2109212048091BC
:100DA0001D04805380930C0490911C0490539093E5
:100DB0000B04E82F2AE0929FE00D1124E0930A042F
:100DC0008E2F90E0FC013197E431F10580F5E85C6D
:100DD000FF4F60910D040C94CD0D80E025C088E09C
:100DE00023C080E121C088E11FC080E21DC088E2ED
:100DF0001BC080E319C088E317C081E015C089E0FB
:100E000013C081E111C089E10FC081E20DC082E011
:100E10000BC08AE009C082E107C08AE105C082E216
:100E200003C08AE201C082E30E94200520C40E9420
:100E30008F051DC480911A048E3411F081E014C412
:100E400080911C04805380930C0490911B04905358
:100E500090930B04E82F4AE0949FE00D1124E09357
:100E60000A048E2F90E0FC013197E832F10508F07A
:100E700054C0E45BFF4F0C94CD0D80E001C088E0CE
:100E80000E944105809312044DC080E1F9CF88E1B2
:100E9000F7CF80E2F5CF80E3F3CF88E2F1CF81E0B6
:100EA000EFCF89E0EDCF81E1EBCF89E1E9CF81E2BE
:100EB000E7CF81E3E5CF89E2E3CF82E0E1CF8AE0CB
:100EC000DFCF82E1DDCF8AE1DBCF82E2D9CF8AE2D8
:100ED000D7CF82E3D5CF8AE3D3CF83E0D1CF8BE0E6
:100EE000CFCF83E1CDCF8BE1CBCF83E2C9CF8BE2F4
:100EF000C7CF83E3C5CF8BE3C3CF84E0C1CF8CE002
:100F0000BFCF84E1BDCF8CE1BBCF84E2B9CF8CE20F
:100F1000B7CF84E3B5CF8CE3B3CF8BE180931204DA
:100F20000E948F05109112041F3799F40E94D50278
:100F30008DE491E00E94B5018FEF9FEDA0E181501B
:100F40009040A040E1F700C0000081E00E949301C2
:100F50008EC380911204811126C10E94D5028DE2B8
:100F600092E068C00E94D50281E00E94930180E572
:100F700091E00E94B50161E080E00E94A20181E65B
:100F800091E00E94B5012FEF4FEB81E221504040EC
:100F90008040E1F700C000000E949E02809312048E
:100FA0000E94D50281E00E949301809112048F3744
:100FB00019F482E791E006C080911204811104C007
:100FC00081E891E00E94B5019FEFAFEBB1E2915053
:100FD000A040B040E1F7E2C0FE013A9685E0DF01B3
:100FE0001D928A95E9F780911D048A8780911E04DD
:100FF0008B8780911F048C87809120048D87CE0180
:1010000041969F938F9381E991E09F938F93FF93F4
:10101000EF930E94ED0D0F900F900F900F900F9097
:101020000F90019789F00E94D50281E00E94930100
:1010300084E991E00E94B501BFEFEFEDF0E1B1501E
:10104000E040F040E1F7AAC089899A899C013550B7
:101050002130364708F0AFC020915B048E010F5F4E
:101060001F4F293020F1188A1F86809122048F8714
:1010700080912304888B1F930F9381E991E09F93C4
:101080008F93CE010F969F938F930E94ED0D0F903B
:101090000F900F900F900F900F90019709F0AFC035
:1010A00069817A8189899A890E94BF027CC00E94E5
:1010B000CA02BEC080911C04853509F4B0C283E029
:1010C000D3C2809121048C3409F0A8CD80912204F0
:1010D000823509F031CE0E94D50281E00E94930151
:1010E00084EC91E00E94B50161E080E00E94A201E1
:1010F00084ED91E00E94B5018FEF9FEBA1E281505A
:101100009040A040E1F700C0000000E010E060E087
:10111000C8010E948B020F5F1F4F0130B2E01B0716
:10112000B1F741C080912304873509F0EACD0E94D0
:10113000DE0239C01A861B861C861D86809120041B
:101140008A87809121048B87809122048C87CE012D
:1011500041969F938F9321E9E22E21E0F22EFF9298
:10116000EF9207979F938F930E94ED0D0F900F9032
:101170000F900F900F900F900197B9F00E94D50239
:1011800081E00E94930184E991E00E94B501EFEFB4
:10119000FFED20E1E150F0402040E1F700C0000009
:1011A00081E00E9493011FE762C289899A89813098
:1011B00042E0940718F00E948F05F5CF20915B0460
:1011C0008E010F5F1F4F2B3088F1188A1F86809188
:1011D00024048F8780912504888B1F930F93FF929F
:1011E000EF92CE010F969F938F930E94ED0D0F907B
:1011F0000F900F900F900F900F90019789F00E9421
:10120000D50281E00E94930182EA91E00E94B5013B
:101210008FEF9FEDA0E181509040A040E1F7BECF5D
:10122000698189899A890E948B02BDCF0E949502AB
:10123000E82E89E0F80111928A95E9F70E94D5021B
:10124000F12C40E1B801C7010E94D30D81E00E945A
:101250009301C8010E94B50182EB91E00E94B501A3
:101260004AE0B801C7010E94D30DC8010E94B50130
:101270008AEB91E00E94B50142E0B801C7010E94EB
:10128000D30D61E080E00E94A201C8010E94B50177
:101290008FEB91E00E94B501FFEF2FEB41E2F1509F
:1012A00020404040E1F77ACF809119048F3309F054
:1012B00045CD0E94D50281E00E94930182EE91E02B
:1012C0000E94B50161E080E00E94A20184EE91E0FD
:1012D0000E94B5018FEF9FEBA1E281509040A040AA
:1012E000E1F700C0000081E00E9493018FEE91E0E1
:1012F0000E94B50161E080E00E94A2018CEF91E0C4
:101300000E94B501BFEFEFEBF1E2B150E040F040D9
:10131000E1F700C0000081E00E94930186E092E0C6
:101320000E94B50161E080E00E94A20183E192E0A9
:101330000E94B5012FEF4FEB81E2215040408040E9
:10134000E1F700C0000081E00E94930184E292E096
:101350000E94B50161E080E00E94A20181E392E079
:101360000E94B5019FEFAFEBB1E29150A040B040B9
:10137000E1F700C0000081E00E9493018FE392E05A
:101380000E94B50161E080E00E94A20184E492E045
:101390000E94B501EFEFFFEB21E2E150F040204069
:1013A000E1F700C0000081E00E94930182E592E035
:1013B0000E94B50161E080E00E94A20182E692E015
:1013C0000E94B5014FEF8FEB91E241508040904079
:1013D000E1F700C0000081E00E9493018CE692E0FA
:1013E0000E94B50161E080E00E94A2018BE792E0DB
:1013F0000E94B501AFEFBFEBE1E2A150B040E04089
:10140000E1F700C0000081E00E9493018BE892E0C8
:101410000E94B50161E080E00E94A20183E992E0B0
:101420000E94B501FFEF2FEB41E2F1502040404018
:10143000E1F700C0000081E00E94930180EA92E0A1
:101440000E94B50161E080E00E94A2018CEA92E076
:101450000E94B5018FEF9FEBA1E281509040A04028
:10146000E1F700C0000081E00E9493018AEB92E066
:101470000E94B50161E080E00E94A20183EC92E04D
:101480000E94B501BFEFEFEBF1E2B150E040F04058
:10149000E1F700C0000081E00E9493018BEC92E034
:1014A0000E94B50161E080E00E94A20187ED92E018
:1014B0000E94B5012FEF4FEB81E221504040804068
:1014C000E1F700C0000081E00E94930187EE92E006
:1014D0000E94B50161E080E00E94A20182EF92E0EB
:1014E0000E94B5019FEFAFEBB1E29150A040B04038
:1014F000E1F700C0000081E00E94930181E093E0E9
:101500000E94B50161E080E00E94A2018CEA92E0B5
:101510000E94B501EFEFFFEB21E2E150F0402040E7
:10152000E1F700C0000081E00E9493018FE093E0AA
:101530000E94B50161E080E00E94A2018DE193E08C
:101540000E94B5014FEF8FEB91E2415080409040F7
:10155000E1F700C0000081E00E9493018AE293E07D
:101560000E94B50161E080E00E94A20188E393E05F
:101570000E94B501AFEFBFEBE1E2A150B040E04007
:10158000E1F700C0000081E00E94930185E493E050
:101590000E94B50161E080E00E94A20185E593E030
:1015A0000E94B501FFEF2FEB41E2F1502040404097
:1015B000E1F700C0000081E00E94930180E693E023
:1015C0000E94B50161E080E00E94A2018DE693E0F7
:1015D0000E94B5018FEF9FEBA1E281509040A040A7
:1015E000E1F700C00000DFCD80911E04803209F0D9
:1015F00063CB80911F048F3409F03FCB809120048E
:101600008E3409F00DCB8FE780935E04CCCD8091B2
:101610002104863409F002CB10925E04C4CD80917F
:101620001D04873409F0A1CB80911E04803209F09B
:1016300043CB80911F048F3409F01FCB809120048D
:101640008E3421F48FE780935D04ADCD809120042A
:10165000863409F0EACA80912104863409F0DECA92
:1016600010925D04A0CD80E00E94A405182F812F68
:1016700062960FB6F894DEBF0FBECDBFDF91CF915B
:101680001F910F91FF90EF9008950E9464050E94B2
:1016900032050E94D50281E00E9493018DE793E01C
:1016A0000E94B50161E080E00E94A2018AE893E017
:1016B0000E94B5012FEF8FE992E3215080409040C6
:1016C000E1F700C0000081E00E94930186E993E009
:1016D0000E94B50161E080E00E94A20187EA93E0E8
:1016E0000E94B5012FEF8FE992E321508040904096
:1016F000E1F700C0000081E00E94930188EB93E0D5
:101700000E94B50161E080E00E94A20188EC93E0B4
:101710000E94B5012FEF8FE992E321508040904065
:10172000E1F700C0000081E00E94930185ED93E0A5
:101730000E94B50161E080E00E94A20186EE93E084
:101740000E94B5012FEF8FE992E321508040904035
:10175000E1F700C0000081E00E94930110925B0459
:101760001092100448EAC42E41E6D42EE12CF12C4C
:10177000812C912C54011FE70BE057E7752E8091C7
:1017800016048F37F1F410921604809117048F37E6
:1017900031F4809159040E9455028093590480913C
:1017A00059040E94A901C0915B0481E08C0F8093D1
:1017B0005B04D0E0809159040E945502C75EDB4F64
:1017C00088832FEF821A920AA20AB20AC814D90497
:1017D000EA04FB0408F059C080915B0460E01F3705
:1017E00039F50E94A20182EF93E00E94B501809139
:1017F0005E048F3739F038E9C32E3AE3D32EE12C5B
:10180000F12C14C02FEF30E080E085BB3898C09AEF
:101810008F5F8F3FD1F7389AC09821503109A1F7D7
:1018200028E8C22E23E1D22EE12CF12C10E025C0B5
:101830000E94A20184EF93E00E94B50180915E04B2
:101840008F3739F098E9C92E9AE3D92EE12CF12C83
:1018500013C02FEF30E080E085BB3898C0988F5FD1
:101860008F3FD1F7389A21503109A9F788E8C82E5F
:1018700083E1D82EE12CF12C1FE780915B0460E01E
:101880000E94A201812C912C5401809102018D3083
:1018900021F080915B04813498F161E080E00E9446
:1018A000A20184EF93E00E94B50180915B0460E0A7
:1018B0000E94A2010E94B20580931204809112043A
:1018C0008F37C1F40E94D50281E00E9493011092EB
:1018D00012041092020110925B040093010180E057
:1018E00090E0FC01E75EFB4F108201968034910589
:1018F000C1F704C01092020100930101789424C042
:10190000809102018730A9F41092020110920E0416
:1019100010921504109217041092110460E070E008
:101920008FEF0E9413027092020166E470E08DEE68
:1019300009C080910201883739F41092020166E4EF
:1019400070E08EEE0E94130280915C04813031F4CD
:1019500010925C0466E470E08DEE0AC080915C0435
:10196000823041F410925C0480910E0460E070E0DB
:101970000E941302809110048F3709F000CFF89471
:1019800088E181BD88E081BDA895FFCF1F920F92AD
:101990000FB60F9211242F933F934F935F936F9342
:1019A0007F938F939F93AF93BF93EF93FF93F8949D
:1019B0005F9BFECFE0915B04F0E08CB1E75EFB4FF4
:1019C0008083E0915B04F0E0E75EFB4F80818D3027
:1019D00019F480930201ADC0E0915B04F0E0E75E92
:1019E000FB4F8081883009F49BC0E0915B04F0E0FC
:1019F000E75EFB4F80818D3009F492C0E0915B047B
:101A0000F0E0E75EFB4F80818B3109F489C0E09103
:101A10005B04F0E0E75EFB4F80818B3F09F480C000
:101A2000E0915B04F0E0E75EFB4F80818C3F09F4BE
:101A300077C0E0915B04F0E0E75EFB4F8081813F7F
:101A400009F46EC0E0915B04F0E0E75EFB4F80813B
:101A5000833F09F465C0E0915B04F0E0E75EFB4F73
:101A60008081803F09F45CC0E0915B04F0E0E75EB8
:101A7000FB4F8081853F09F453C0E0915B04F0E0A7
:101A8000E75EFB4F8081813F09F44AC0E0915B042F
:101A9000F0E0E75EFB4F8081843F09F441C0E091B4
:101AA0005B04F0E0E75EFB4F80818D3FC9F1E09180
:101AB0005B04F0E0E75EFB4F80818E3F89F1E091AF
:101AC0005B04F0E0E75EFB4F8081863F49F1E091E7
:101AD0005B04F0E0E75EFB4F8081873F09F1E09116
:101AE0005B04F0E0E75EFB4F8081883FC9F0E09146
:101AF0005B04F0E0E75EFB4F8081893F89F08091D5
:101B00005B04803168F4E0915B0481E08E0F809388
:101B10005B04F0E0E75EFB4F80810E94A90109C0F1
:101B200080915B04882329F080915B04815080932D
:101B30005B047894FF91EF91BF91AF919F918F914A
:101B40007F916F915F914F913F912F910F900FBEB9
:101B50000F901F901895A1E21A2EAA1BBB1BFD0126
:101B60000DC0AA1FBB1FEE1FFF1FA217B307E4077C
:101B7000F50720F0A21BB30BE40BF50B661F771FD4
:101B8000881F991F1A9469F76095709580959095B4
:101B90009B01AC01BD01CF010895EE0FFF1F059021
:101BA000F491E02D0994BB27FB015527AA27880F44
:101BB000991FAA1FA41710F0A41B83955051B9F7C1
:101BC000A05DAA3308F0A95DA193009779F7B11140
:101BD000B1931192CB010C94C710AEE0B0E0E3EFEB
:101BE000FDE00C94411185E08C838B899C899A835C
:101BF0008983AE01495E5F4F6D897E89CE01019672
:101C00000E94A20F2E96E2E00C945D1120FD09C007
:101C1000FC0123FD05C022FF02C073836283518350
:101C20004083089544FD17C046FD17C0AB01BC01B9
:101C3000DA01FB01AA0FBB1FEE1FFF1F1094D1F7A3
:101C40004A0F5B1F6E1F7F1FCB01BA01660F771F04
:101C5000881F991F09C033E001C034E0660F771F69
:101C6000881F991F3150D1F7620F711D811D911D81
:101C700008950F931F93CF93DF938C01C8010E94A7
:101C8000D710EC0197FD08C00E94B310892BB1F763
:101C9000B801CE010E941511CE01DF91CF911F91A5
:101CA0000F9108958F929F92AF92BF92EF92FF9201
:101CB0000F931F93CF93DF938C01D62F7A01B22E0F
:101CC0000E94D7109C0133272B32310531F02D3281
:101CD000310561F48B2D8068B82ED15011F480E06D
:101CE00068C0C8010E94D71097FDF9CFCB2DCD7FDA
:101CF0002B2D207309F58033F9F4AA24AA94AD0E94
:101D000009F443C0C8010E94D71097FD3EC09C0152
:101D10002F7D33272835310549F4C264D250A9F10B
:101D2000C8010E94D71097FF07C02FC0B6FE02C09F
:101D3000C26001C0C261DA2D812C912C540120EDCA
:101D4000280F283080F0C4FF04C0B8010E9415118C
:101D500019C02A3040F0C6FFF8CF2F7D3FEE320F7A
:101D6000363098F727504C2FC501B4010E94120E4F
:101D70004B015C01C260D15059F0C8010E94D710DC
:101D800097FFDDCFC1FD04C0AACF812C912C540157
:101D9000C7FF08C0B094A09490948094811C911CBB
:101DA000A11CB11C2C2FB501A401C7010E94060E75
:101DB00081E0DF91CF911F910F91FF90EF90BF9045
:101DC000AF909F908F900895A0E2B0E0EAEEFEE021
:101DD0000C9434115C01962E7A01F9018E010F5F8B
:101DE0001F4F680180E2D8011D928A95E9F7D5015D
:101DF00013968C9080E090E0612C712C30E061E0D3
:101E000070E083FC259183FE21918F01522E2111D8
:101E100003C080E090E092C02E3511F4009751F19C
:101E2000432F50E0481759073CF42D3559F12D3216
:101E300019F4772009F103C0772009F46AC0452D11
:101E4000469546954695D601A40FB11D452D477080
:101E50008B0102C0000F111F4A95E2F7A8015C91A7
:101E6000452B4C93651459F0561410F45394E7CF56
:101E70005A94E5CF31E004C07724739401C0712CEB
:101E80000196BFCF772019F08E8180628E83311149
:101E900003C08824839417C0F6019E012F5D3F4F35
:101EA0008081809581932E173F07D1F7F2CFE114FF
:101EB000F10429F0D7018C93F70131967F019A94B0
:101EC000812C9920F9F0C5010E94D71097FD18C008
:101ED000FC01FF2723E0F595E7952A95E1F7EC0D46
:101EE000FD1D208130E0AC014770552702C03595BB
:101EF00027954A95E2F720FDDACFB5010E9415112A
:101F0000811087CFE114F10411F0D7011C92C801B0
:101F100015C0422F469546954695D601A40FB11D92
:101F2000422F47708B0102C0000F111F4A95E2F744
:101F3000A8015C91452B4C93622EA2CFA096EFE0B6
:101F40000C945011A0E0B0E0E8EAFFE00C943411EA
:101F50006C01EB015A01FC0117821682512CF6012B
:101F6000E380FE01E3FC8591E3FE8191182FEF01F0
:101F7000882309F4EEC090E00E94B310892B21F071
:101F8000C6010E94390EEBCF153241F4FE01E3FC8D
:101F90001591E3FE1191EF01153281F4C6010E9403
:101FA000D71097FDD4C0412F50E09C013327241750
:101FB0003507A9F2B6010E941511CBC01A3239F4C7
:101FC000E3FC1591E3FE1191EF0101E001C000E097
:101FD000F12C20ED210F2A3080F402606F2D70E08B
:101FE00080E090E040E20E94120EF62EFE01E3FC3B
:101FF0001591E3FE1191EF01ECCF01FF03C0F11049
:1020000003C0A7C0FF24FA94183619F01C3651F00B
:1020100010C0FE01E3FC1591E3FE1191EF011836AB
:1020200041F408600460FE01E3FC1591E3FE1191A8
:10203000EF01112309F48DC0612F70E088EE90E06C
:102040000E94BC10892B09F484C000FD07C0F50173
:1020500080809180C50102965C0102C0812C912C88
:102060001E3651F4F6014681578160E070E0202F62
:10207000C4010E94060E73CF1336A9F401FD02C0FD
:10208000FF24F394C6010E94D71097FD60C081140D
:10209000910429F0F4018083C40101964C01FA9463
:1020A000F110F0CF50C01B3559F49E01A4016F2DE3
:1020B000C6010E94E40EEC01892B09F044C03EC029
:1020C000C6010E94390E97FD42C01F3661F128F407
:1020D000143639F1193651F128C0133771F015371C
:1020E00001F123C08114910429F0F4016082C4013C
:1020F00001964C01FA94FF2071F0C6010E94D7109E
:102100003C0197FD08C00E94B310892B59F3B6011A
:10211000C3010E94151181149104A9F0F4011082E9
:1021200012C0006203C0006101C00064202FA4013E
:102130006F2DC6010E94520E811105C0F6018381E8
:10214000807329F406C000FD0ACF539408CF5520B0
:1021500019F0852D90E002C08FEF9FEFCDB7DEB76D
:10216000EFE00C94501191110C942E11803219F063
:1021700089508550C8F70895FC010590061621F096
:102180000020D9F7C00108953197CF010895DC01EF
:10219000FC01672F71917723E1F7329704C07C919E
:1021A0006D9370836291AE17BF07C8F30895CF9304
:1021B000DF93EC012B8120FF33C026FF0AC02F7B69
:1021C0002B838E819F8101969F838E838A8190E0ED
:1021D00029C022FF0FC0E881F9818081082E000C00
:1021E000990B009719F420622B831AC03196F9835A
:1021F000E8830EC0EA85FB85099597FF09C02B810E
:10220000019611F080E201C080E1822B8B8308C02F
:102210002E813F812F5F3F4F3F832E83992702C03E
:102220008FEF9FEFDF91CF910895FB01238120FF76
:1022300012C026FD10C08F3F3FEF930761F08283ED
:102240002F7D2064238326813781215031093783F4
:102250002683992708958FEF9FEF08959927882760
:1022600008952F923F924F925F926F927F928F923A
:102270009F92AF92BF92CF92DF92EF92FF920F9315
:102280001F93CF93DF93CDB7DEB7CA1BDB0B0FB61F
:10229000F894DEBF0FBECDBF09942A8839884888DC
:1022A0005F846E847D848C849B84AA84B984C88472
:1022B000DF80EE80FD800C811B81AA81B981CE0F69
:1022C000D11D0FB6F894DEBF0FBECDBFED0108954E
:0422D000F894FFCFB0
:1022D4007F0B07427566666572206F766572666C61
:1022E4006F7700454550524F4D20636F6E74656E95
:1022F4007473004144522000207C2048455820003B
:10230400456E64206F66206C696E650052616E676D
:1023140065206578636565646564005E004F4E0002
:1023240054657374203235366B2065787472616D30
:1023340000307830353030202D3E20307837423030
:10234400300045787465726E205352414D204F4BD6
:102354000045787465726E205352414D204E4F4BA8
:102364000025780041646472657373206572726F2E
:102374007200506172616D65746572206572726F6E
:10238400720020686578207C20002064656300204A
:1023940062696E00436C656172696E6720454550E1
:1023A400524F4D0030783030202D3E20307832307E
:1023B40030003F004573746120616A756461004DAB
:1023C4004149555343554C41206F75006D696E75F5
:1023D4007363756C61006465627567206F6E2F4F5F
:1023E4004646004D6F73747261207363616E20639F
:1023F4006F6465004F55547878204F4E2F4F4646F2
:10240400006D696E203031206D61782032300049D2
:102414004E7878006D696E203031206D61782034FB
:102424003000446967697465206F73206E756D654B
:102434002D00726F7320656D207878006F7574209D
:10244400616C6C206F6E2F6F666600546F646173ED
:1024540020617320736169646173004D454D20549C
:1024640053540054657374612065787472616D000F
:102474004D454D20484848482048480057522020A0
:10248400414452202044415441004D454D20484888
:102494004848005244202041445200454550524F80
:1024A4004D2053484F57004D6F7374726120636F12
:1024B4006E746575646F00454550524F4D20636CD2
:1024C40072004C696D706120636F6E746575646F22
:1024D40000454550524F4D20484848204848004543
:1024E4004550524F4D20314646204848004D5342F6
:1024F40020636F6E7461646F7200454550524F4D96
:1025040020323030204848004C534220636F6E74B0
:1025140061646F7200446967697465206F73207623
:10252400616C6F2D0072657320656D2048455800FD
:10253400626C696E6B206F6E2F6F666600506973F4
:10254400636120617320736169646173006D6172FA
:10255400636F6164656F6C6940006F75746C6F6F55
:102564006B2E636F6D004B49542064652064657362
:10257400656E766F6C2D0076696D656E746F207074
:1025840061726120415652006D65676131363220B7
:102594006573637261766F006D65676138206D6580
:1025A4007374726500446967697465203F20702FF5
:1025B400206578692D00626972206120616A756402
:1025C40061005F00202020202020202020202020C7
:0625D40020202020000081
:00000001FF
