:1000000018C02AC029C028C027C026C025C024C0C7
:1000100023C022C021C020C01FC01EC01DC01CC0E4
:100020001BC01AC019C01F1C1F1E1F1E1F1F1E1F12
:100030001E1F11241FBECFE5D4E0DEBFCDBF10E0F0
:10004000A0E6B0E0EEE4F0E102C005900D92A23728
:10005000B107D9F769D1F9C7D3CF8FD285E28A9595
:10006000F1F7089550E0623070F0E6E2F0E02EEF34
:10007000260F30E0295D3F4F9491490F511D319675
:10008000E217F307C9F7633028F0982F937011F443
:100090004F5F5F4F90E06DE671E0869F9001879F14
:1000A000300D969F300D1124B9016B5F7F4F039681
:1000B0009C0112F42D5F3F4F359527953595279577
:1000C000260F371F420F531F9A01A3E9B4E2AED4A3
:1000D000281B390B36952795820F931F9695879588
:1000E000969587959C01220F331F220F331F220FF5
:1000F000331FB901681B790BCB01742F781B872F35
:100100000895CF92DF92EF92FF920F931F93CF93B8
:10011000DF939BE39E1508F470C00C3308F06FC0AA
:10012000283108F06EC09FEF940F9F3108F06BC02C
:100130009FEF960F9C3008F068C0843608F067C0C7
:10014000E62FF0E0EB5DFF4FE491E41708F461C0A7
:10015000C22FD42F162FF82E85DFC82E80ED2FD278
:1001600080E053D20F2EFAE0DF2EF02D8E2D6D2D74
:1001700051D4982F880F890F880F8E0D46D2802F6B
:100180006D2D48D4982F880F980F892F880F800FD6
:100190003CD28C2F6D2D3ED4982F880F980F892F2D
:1001A000880F8C0F32D28C2D6D2D34D4982F880F60
:1001B000980F892F880F8C0D28D28D2F6D2D2AD462
:1001C000982F990F890F880F8D0F1FD2812F6D2DBA
:1001D00021D4982F990F890F880F810F16D28F2D58
:1001E0006D2D18D4982F990F890F880F8F0D0DD270
:1001F00080E00BD204D281E00DC088E00BC088E023
:1002000009C088E007C088E005C088E003C088E036
:1002100001C080E0DF91CF911F910F91FF90EF908F
:10022000DF90CF9008958F929F92AF92BF92CF921E
:10023000DF92EF92FF920F931F93CF93DF93EC0126
:100240006B015A01490180EDBAD180E0DED1D7D1EE
:1002500081EDD3D1E7D18F77982F92959F70292F79
:10026000220F920F990F891BF7018083DBD1982F02
:1002700092959F70292F220F920F990F891BF801D9
:100280008083D0D1982F92959F70292F220F920FA3
:10029000990F891BF4018083C5D1C4D1982F929501
:1002A0009F70292F220F920F990F891BF5018083D0
:1002B000B9D1982F92959F70292F220F920F990FE5
:1002C000891BF6018083B5D1982F92959F70292FB5
:1002D000220F920F990F891B888391D1DF91CF91C3
:1002E0001F910F91FF90EF90DF90CF90BF90AF9054
:1002F0009F908F90089588E287BB81E58DB908951E
:100300008FB9779BFECF089580E487B987E886B9D7
:10031000089597B18770987F892B87B9369A369957
:10032000FECF84B195B10895CF93DF93CDB7DEB7FB
:10033000C655D1090FB6F894DEBF0FBECDBF88E217
:10034000FE013196DF01282F1D922A95E9F7B89614
:10035000DF011D928A95E9F7CEDFD6DF7EDE629659
:100360001FAE629763961FAE639764961FAE649745
:1003700065961FAE659766961FAE669767961FAE29
:100380006797E12C0DE22AE049E16BE08FE0B9DEEE
:100390006E01B9E2CB0ED11C412C512C3C2C2D2CE2
:1003A0005E01EBE2AE0EB11CFFEF2FEB81E2F150EC
:1003B00020408040E1F700C00000E12CF12C83C018
:1003C0008E2DA7DFBC0180E090E033D29B01AC0111
:1003D000662D772D882D992D34D1662E772E882E77
:1003E000992EAFEFBBE61197F1F700C00000015066
:1003F000110931F720E030E040EA50E486D120E0F6
:1004000030E048E452E4A3D220E030E048EC52E48B
:100410009ED220E030E040E85AE399D2DED1DC0100
:10042000CB014AE050E0632D722D0CD3E114F104AE
:1004300069F489A589838AA58A83BEE2BB838BA5DB
:100440008C838CA58D83E6E5EE8325C0F1E0EF1665
:10045000F10469F489A58F838AA588872EE229870C
:100460008BA58A878CA58B8786E58C8725C092E033
:10047000E916F10481F4A0E2AD8789A58E87BEE27A
:10048000BF878AA5888B8BA5898BE6E5EA8BFFEF72
:10049000EF1AFF0A18C023E0E216F10469F489A5F7
:1004A0008B8B8AA58C8B8EE28D8B8BA58E8B8CA5EE
:1004B0008F8B86E5888F0EC08FEFE81AF80A94E0DC
:1004C000E916F10439F005E010E0612C712C842C60
:1004D000952C76CFDE01AA5ABF4F7D018E010B5AB3
:1004E0001F4F9E012C5A3F4FAE014D5A5F4FBE0128
:1004F0006E5A7F4FCE018F5A9F4F95DE67968FAD14
:1005000067971F928F9366968FAD66971F928F9312
:1005100065968FAD65971F928F9362968FAD6297A8
:100520001F928F9363968FAD63971F928F936496FC
:100530008FAD64971F928F9380E690E09F938F9387
:10054000DF92CF92ACD2A32DB22DFE0179960FB6D9
:10055000F894DEBF0FBECDBF8D918193EA15FB05E8
:10056000D9F78E010F5F1F4FD8018D918D0190E05B
:10057000C7DE0C151D05C1F717CF11B880E280B991
:10058000089594EA96BF06B607FEFDCF91B1987F15
:10059000983011F0903179F483B984E886BF06B6BB
:1005A00007FEFDCF91B1987F983139F081E090340A
:1005B00029F480E0089581E0089580E0089524EA18
:1005C00034E844E926BF06B607FEFDCF91B1987F17
:1005D000983011F09031B1F783B936BF06B607FEF7
:1005E000FDCF91B1987F903211F0983529F446BF34
:1005F00006B604FCFDCFE6CF0895C3DF089584E975
:1006000086BF06B604FCFDCF089583B984E886BF93
:1006100006B607FEFDCF91B1987F81E0983209F4CC
:1006200080E0089584EC86BF06B607FEFDCF83B157
:10063000089584E886BF06B607FEFDCF83B108950E
:100640005058BB27AA270ED048C139D130F03ED12F
:1006500020F031F49F3F11F41EF42EC10EF4E0950A
:10066000E7FB24C1E92F4AD180F3BA176207730769
:100670008407950718F071F49EF562C10EF4E095B9
:100680000B2EBA2FA02D0B01B90190010C01CA014C
:10069000A0011124FF27591B99F0593F50F4503EF7
:1006A00068F11A16F040A22F232F342F4427585FE9
:1006B000F3CF469537952795A795F0405395C9F701
:1006C0007EF41F16BA0B620B730B840BBAF09150B9
:1006D000A1F0FF0FBB1F661F771F881FC2F70EC058
:1006E000BA0F621F731F841F48F48795779567952B
:1006F000B795F7959E3F08F0B3CF9395880F08F014
:100700009927EE0F9795879508950CD0E6C0DED017
:1007100040F0D5D030F021F45F3F19F0C7C051113F
:1007200010C1CAC0EBD098F39923C9F35523B1F394
:10073000951B550BBB27AA2762177307840738F050
:100740009F5F5F4F220F331F441FAA1FA9F333D0AF
:100750000E2E3AF0E0E830D091505040E695001C63
:10076000CAF729D0FE2F27D0660F771F881FBB1F1F
:10077000261737074807AB07B0E809F0BB0B802DF9
:10078000BF01FF2793585F4F2AF09E3F510568F045
:100790008DC0D7C05F3FECF3983EDCF3869577952C
:1007A0006795B795F7959F5FC9F7880F911D969547
:1007B000879597F90895E1E0660F771F881FBB1FA3
:1007C000621773078407BA0720F0621B730B840B50
:1007D000BA0BEE1F88F7E095089598D088F09F57E0
:1007E00090F0B92F9927B751A0F0D1F0660F771F7D
:1007F000881F991F1AF0BA95C9F712C0B13081F05D
:100800009FD0B1E008959CC0672F782F8827B85FEC
:1008100039F0B93FCCF3869577956795B395D9F7BD
:100820003EF490958095709561957F4F8F4F9F4FC7
:100830000895E89409C097FB3EF4909580957095D3
:1008400061957F4F8F4F9F4F9923A9F0F92F96E91C
:10085000BB279395F695879577956795B795F11191
:10086000F8CFFAF4BB0F11F460FF1BC06F5F7F4F2E
:100870008F4F9F4F16C0882311F096E911C0772340
:1008800021F09EE8872F762F05C0662371F096E849
:10089000862F70E060E02AF09A95660F771F881F18
:1008A000DAF7880F9695879597F9089597F99F67D6
:1008B00080E870E060E008959FEF80EC08950024E8
:1008C0000A941616170618060906089500240A94B5
:1008D00012161306140605060895092E0394000C3B
:1008E00011F4882352F0BB0F40F4BF2B11F460FFCA
:1008F00004C06F5F7F4F8F4F9F4F089557FD9058F3
:10090000440F551F59F05F3F71F04795880F97FBD3
:10091000991F61F09F3F79F087950895121613068D
:100920001406551FF2CF4695F1DF08C016161706BC
:100930001806991FF1CF86957105610508940895F1
:10094000E894BB2766277727CB0197F908950BD04A
:10095000C4CFB5DF28F0BADF18F0952309F0A6CF91
:10096000ABCF1124EECFCADFA0F3959FD1F3950F43
:1009700050E0551F629FF001729FBB27F00DB11D23
:10098000639FAA27F00DB11DAA1F649F6627B00DB3
:10099000A11D661F829F2227B00DA11D621F739F9C
:1009A000B00DA11D621F839FA00D611D221F749FAA
:1009B0003327A00D611D231F849F600D211D822FF1
:1009C000762F6A2F11249F5750408AF0E1F0882338
:1009D0004AF0EE0FFF1FBB1F661F771F881F915045
:1009E0005040A9F79E3F510570F060CFAACF5F3FFE
:1009F000ECF3983EDCF3869577956795B795F79578
:100A0000E7959F5FC1F7FE2B880F911D96958795FF
:100A100097F90895991B79E004C0991F961708F07B
:100A2000961B881F7A95C9F780950895A29FB001FB
:100A3000B39FC001A39F01D0B29F700D811D1124EF
:100A4000911D08954532510518F4423008F004C054
:100A5000FB011082CB010895BB274A3031F4992362
:100A600022F4BDE2909581959F4F01C0BB27FB0109
:100A70005527AA27880F991FAA1FA41710F0A41B97
:100A800083955051B9F7A05DAA3308F0A95DA193F1
:100A9000009779F7B111B1931192CB01F9C1AEE092
:100AA000B0E0E4E5F5E0A8C20D891E8986E08C83FC
:100AB0001A8309838FEF9FE79E838D83AE01475E84
:100AC0005F4F6F89788DCE01019609D02F813885CF
:100AD000F801E20FF31F10822E96E4E0A9C2ACE009
:100AE000B0E0E4E7F5E07AC27C016B018A01FC0129
:100AF00017821682838181FFB0C1CE0101964C011D
:100B0000F7019381F60193FD859193FF81916F0128
:100B1000882309F49EC1853239F493FD859193FFB2
:100B200081916F01853221F4B70190E0C1D1E8CF06
:100B3000512C312C20E02032A0F48B3269F030F4BB
:100B4000803259F0833269F420612CC08D3239F043
:100B5000803339F4216026C02260246023C02860DD
:100B600021C027FD27C030ED380F3A3078F426FF3A
:100B700006C0FAE05F9E300D1124532E13C08AE0A8
:100B8000389E300D1124332E20620CC08E3221F499
:100B900026FD5FC1206406C08C3611F4206802C0B7
:100BA000883641F4F60193FD859193FF81916F01A1
:100BB0008111C1CF982F9F7D9554933028F40C5FFD
:100BC0001F4FFFE3F9830DC0833631F0833771F097
:100BD000833509F057C021C0F801808189830E5FF9
:100BE0001F4F44244394512C540114C03801F2E0A7
:100BF0006F0E711CF801A080B18026FF03C0652D27
:100C000070E002C06FEF7FEFC5012C8736D12C0159
:100C100083012C852F77222E16C03801F2E06F0E4B
:100C2000711CF801A080B18026FF03C0652D70E023
:100C300002C06FEF7FEFC5012C8714D12C012C85EA
:100C40002068222E830123FC19C0832D90E04816D2
:100C50005906A0F4B70180E290E02AD13A94F5CF8A
:100C6000F50127FC859127FE81915F01B70190E096
:100C70001FD131103A94F1E04F1A51084114510438
:100C800079F7DEC0843611F0893631F5F80127FF97
:100C900007C060817181828193810C5F1F4F08C002
:100CA00060817181072E000C880B990B0E5F1F4F1E
:100CB0002F76722E97FF09C090958095709561955B
:100CC0007F4F8F4F9F4F2068722E2AE030E0A401A3
:100CD00027D1A82EA81843C0853729F42F7EB22E1D
:100CE0002AE030E025C0F22FF97FBF2E8F36C1F009
:100CF00018F4883579F0ADC0803719F0883721F0C5
:100D0000A8C02F2F2061B22EB4FE0DC08B2D8460A1
:100D1000B82E09C024FF0AC09F2F9660B92E06C0C6
:100D200028E030E005C020E130E002C020E132E000
:100D3000F801B7FE07C060817181828193810C5FE9
:100D40001F4F06C06081718180E090E00E5F1F4FF1
:100D5000A401E6D0A82EA818FB2DFF777F2E76FEE3
:100D60000BC0372D3E7FA51450F474FE0AC072FCF0
:100D700008C0372D3E7E05C0BA2C372D03C0BA2CD3
:100D800001C0B52C34FF0DC0FE01EA0DF11D8081BC
:100D9000803311F4397E09C032FF06C0B394B39496
:100DA00004C0832F867809F0B39433FD12C030FF5E
:100DB00006C05A2CB31418F4530C5B18B32CB3149C
:100DC00060F4B70180E290E03C8772D0B3943C8538
:100DD000F6CFB31410F43B1801C0312C34FF11C00E
:100DE000B70180E390E03C8763D03C8532FF16C0BA
:100DF00031FD03C088E790E002C088E590E0B701CC
:100E00000CC0832F867851F031FF02C08BE201C005
:100E100080E237FD8DE2B70190E04AD0A51430F4AE
:100E2000B70180E390E044D05A94F8CFAA94F4013B
:100E3000EA0DF11D8081B70190E03AD0A110F6CF04
:100E4000332009F45DCEB70180E290E031D03A94CE
:100E5000F7CFF7018681978102C08FEF9FEF2C9625
:100E6000E2E1D8C0FC010590615070400110D8F754
:100E7000809590958E0F9F1F0895FC0161507040E2
:100E800001900110D8F7809590958E0F9F1F0895BF
:100E9000DC01FC01672F71917723E1F7329704C0E1
:100EA0007C916D9370836291AE17BF07C8F308956C
:100EB0000F931F93CF93DF93FB01238121FD03C089
:100EC0008FEF9FEF28C022FF16C0468157812481F3
:100ED00035814217530744F4A081B1819D012F5FF2
:100EE0003F4F318320838C93268137812F5F3F4F83
:100EF0003783268310C0EB01092F182F0084F1855A
:100F0000E02D0995892BE1F68E819F8101969F83C3
:100F10008E83812F902FDF91CF911F910F91089594
:100F2000FA01AA27283051F1203181F1E8946F931A
:100F30006E7F6E5F7F4F8F4F9F4FAF4FB1E03ED0C0
:100F4000B4E03CD0670F781F891F9A1FA11D680F5E
:100F5000791F8A1F911DA11D6A0F711D811D911D91
:100F6000A11D20D009F468943F912AE0269F112406
:100F70003019305D3193DEF6CF010895462F47706A
:100F8000405D4193B3E00FD0C9F7F6CF462F4F70C5
:100F9000405D4A3318F0495D31FD4052419302D023
:100FA000A9F7EACFB4E0A6959795879577956795C9
:100FB000BA95C9F700976105710508959B01AC01C9
:100FC0000A2E06945795479537952795BA95C9F7F0
:100FD000620F731F841F951FA01D08952F923F92CB
:100FE0004F925F926F927F928F929F92AF92BF9239
:100FF000CF92DF92EF92FF920F931F93CF93DF93E5
:10100000CDB7DEB7CA1BDB0B0FB6F894DEBF0FBE41
:10101000CDBF09942A88398848885F846E847D848E
:101020008C849B84AA84B984C884DF80EE80FD8090
:101030000C811B81AA81B981CE0FD11D0FB6F89406
:0E104000DEBF0FBECDBFED010895F894FFCFC7
:10104E0025642F25642F25642025643A25643A25CE
:02105E0064002C
:00000001FF
